{
  "_format": "hh-sol-artifact-1",
  "contractName": "NotesApp",
  "sourceName": "contracts/Notes.sol",
  "abi": [
    {
      "anonymous": false,
      "inputs": [
        {
          "indexed": false,
          "internalType": "uint256",
          "name": "id",
          "type": "uint256"
        },
        {
          "indexed": true,
          "internalType": "address",
          "name": "owner",
          "type": "address"
        },
        {
          "indexed": false,
          "internalType": "string",
          "name": "ipfsHash",
          "type": "string"
        },
        {
          "indexed": false,
          "internalType": "uint256",
          "name": "timestamp",
          "type": "uint256"
        }
      ],
      "name": "NoteAdded",
      "type": "event"
    },
    {
      "anonymous": false,
      "inputs": [
        {
          "indexed": false,
          "internalType": "uint256",
          "name": "id",
          "type": "uint256"
        },
        {
          "indexed": true,
          "internalType": "address",
          "name": "owner",
          "type": "address"
        },
        {
          "indexed": false,
          "internalType": "uint256",
          "name": "timestamp",
          "type": "uint256"
        }
      ],
      "name": "NoteDeleted",
      "type": "event"
    },
    {
      "anonymous": false,
      "inputs": [
        {
          "indexed": false,
          "internalType": "uint256",
          "name": "id",
          "type": "uint256"
        },
        {
          "indexed": true,
          "internalType": "address",
          "name": "owner",
          "type": "address"
        },
        {
          "indexed": false,
          "internalType": "string",
          "name": "newIpfsHash",
          "type": "string"
        },
        {
          "indexed": false,
          "internalType": "uint256",
          "name": "timestamp",
          "type": "uint256"
        }
      ],
      "name": "NoteModified",
      "type": "event"
    },
    {
      "inputs": [
        {
          "internalType": "string",
          "name": "ipfsHash",
          "type": "string"
        }
      ],
      "name": "addNote",
      "outputs": [],
      "stateMutability": "nonpayable",
      "type": "function"
    },
    {
      "inputs": [
        {
          "internalType": "uint256",
          "name": "id",
          "type": "uint256"
        }
      ],
      "name": "deleteNote",
      "outputs": [],
      "stateMutability": "nonpayable",
      "type": "function"
    },
    {
      "inputs": [],
      "name": "getMyNotes",
      "outputs": [
        {
          "components": [
            {
              "internalType": "uint256",
              "name": "id",
              "type": "uint256"
            },
            {
              "internalType": "string",
              "name": "ipfsHash",
              "type": "string"
            },
            {
              "internalType": "uint256",
              "name": "timestamp",
              "type": "uint256"
            },
            {
              "internalType": "address",
              "name": "owner",
              "type": "address"
            }
          ],
          "internalType": "struct NotesApp.Note[]",
          "name": "",
          "type": "tuple[]"
        }
      ],
      "stateMutability": "view",
      "type": "function"
    },
    {
      "inputs": [
        {
          "internalType": "uint256",
          "name": "id",
          "type": "uint256"
        },
        {
          "internalType": "string",
          "name": "newIpfsHash",
          "type": "string"
        }
      ],
      "name": "updateNote",
      "outputs": [],
      "stateMutability": "nonpayable",
      "type": "function"
    }
  ],
  "bytecode": "0x6080604052348015600f57600080fd5b506112db8061001f6000396000f3fe608060405234801561001057600080fd5b506004361061004c5760003560e01c806349781ef91461005157806386f17bb71461006d578063a4edff471461008b578063c47177f4146100a7575b600080fd5b61006b600480360381019061006691906109ac565b6100c3565b005b610075610221565b6040516100829190610bfc565b60405180910390f35b6100a560048036038101906100a09190610c1e565b6103b8565b005b6100c160048036038101906100bc9190610c67565b610540565b005b6000808060003373ffffffffffffffffffffffffffffffffffffffff1673ffffffffffffffffffffffffffffffffffffffff168152602001908152602001600020905060005b81805490508110156101da578482828154811061012957610128610c94565b5b906000526020600020906004020160000154036101cd578382828154811061015457610153610c94565b5b906000526020600020906004020160010190816101719190610ecf565b503373ffffffffffffffffffffffffffffffffffffffff167f5f94fe060613f2923f0a1b858b97f3eb8bb4737069e117c81a551137a3ad702b8686426040516101bc93929190610ffa565b60405180910390a2600192506101da565b8080600101915050610109565b508161021b576040517f08c379a000000000000000000000000000000000000000000000000000000000815260040161021290611084565b60405180910390fd5b50505050565b60606000803373ffffffffffffffffffffffffffffffffffffffff1673ffffffffffffffffffffffffffffffffffffffff168152602001908152602001600020805480602002602001604051908101604052809291908181526020016000905b828210156103af5783829060005260206000209060040201604051806080016040529081600082015481526020016001820180546102be90610cf2565b80601f01602080910402602001604051908101604052809291908181526020018280546102ea90610cf2565b80156103375780601f1061030c57610100808354040283529160200191610337565b820191906000526020600020905b81548152906001019060200180831161031a57829003601f168201915b50505050508152602001600282015481526020016003820160009054906101000a900473ffffffffffffffffffffffffffffffffffffffff1673ffffffffffffffffffffffffffffffffffffffff1673ffffffffffffffffffffffffffffffffffffffff168152505081526020019060010190610281565b50505050905090565b6000604051806080016040528060015481526020018381526020014281526020013373ffffffffffffffffffffffffffffffffffffffff1681525090506000803373ffffffffffffffffffffffffffffffffffffffff1673ffffffffffffffffffffffffffffffffffffffff16815260200190815260200160002081908060018154018082558091505060019003906000526020600020906004020160009091909190915060008201518160000155602082015181600101908161047c9190610ecf565b506040820151816002015560608201518160030160006101000a81548173ffffffffffffffffffffffffffffffffffffffff021916908373ffffffffffffffffffffffffffffffffffffffff16021790555050503373ffffffffffffffffffffffffffffffffffffffff167f25c9236f6a91471be6b3128d3eef82f93923e4981bd3d707061e291810b8e2cb600154844260405161051c93929190610ffa565b60405180910390a260016000815480929190610537906110d3565b91905055505050565b6000808060003373ffffffffffffffffffffffffffffffffffffffff1673ffffffffffffffffffffffffffffffffffffffff168152602001908152602001600020905060005b818054905081101561077957838282815481106105a6576105a5610c94565b5b9060005260206000209060040201600001540361076c5781600183805490506105cf919061111b565b815481106105e0576105df610c94565b5b906000526020600020906004020182828154811061060157610600610c94565b5b9060005260206000209060040201600082015481600001556001820181600101908161062d9190611165565b50600282015481600201556003820160009054906101000a900473ffffffffffffffffffffffffffffffffffffffff168160030160006101000a81548173ffffffffffffffffffffffffffffffffffffffff021916908373ffffffffffffffffffffffffffffffffffffffff160217905550905050818054806106b3576106b261124d565b5b60019003818190600052602060002090600402016000808201600090556001820160006106e091906107bf565b60028201600090556003820160006101000a81549073ffffffffffffffffffffffffffffffffffffffff0219169055505090553373ffffffffffffffffffffffffffffffffffffffff167fd95d5ecc2d45ca5ef6d37d46144e643902cee09ee916928c8328ab4049ed106a854260405161075b92919061127c565b60405180910390a260019250610779565b8080600101915050610586565b50816107ba576040517f08c379a00000000000000000000000000000000000000000000000000000000081526004016107b190611084565b60405180910390fd5b505050565b5080546107cb90610cf2565b6000825580601f106107dd57506107fc565b601f0160209004906000526020600020908101906107fb91906107ff565b5b50565b5b80821115610818576000816000905550600101610800565b5090565b6000604051905090565b600080fd5b600080fd5b6000819050919050565b61084381610830565b811461084e57600080fd5b50565b6000813590506108608161083a565b92915050565b600080fd5b600080fd5b6000601f19601f8301169050919050565b7f4e487b7100000000000000000000000000000000000000000000000000000000600052604160045260246000fd5b6108b982610870565b810181811067ffffffffffffffff821117156108d8576108d7610881565b5b80604052505050565b60006108eb61081c565b90506108f782826108b0565b919050565b600067ffffffffffffffff82111561091757610916610881565b5b61092082610870565b9050602081019050919050565b82818337600083830152505050565b600061094f61094a846108fc565b6108e1565b90508281526020810184848401111561096b5761096a61086b565b5b61097684828561092d565b509392505050565b600082601f83011261099357610992610866565b5b81356109a384826020860161093c565b91505092915050565b600080604083850312156109c3576109c2610826565b5b60006109d185828601610851565b925050602083013567ffffffffffffffff8111156109f2576109f161082b565b5b6109fe8582860161097e565b9150509250929050565b600081519050919050565b600082825260208201905092915050565b6000819050602082019050919050565b610a3d81610830565b82525050565b600081519050919050565b600082825260208201905092915050565b60005b83811015610a7d578082015181840152602081019050610a62565b60008484015250505050565b6000610a9482610a43565b610a9e8185610a4e565b9350610aae818560208601610a5f565b610ab781610870565b840191505092915050565b600073ffffffffffffffffffffffffffffffffffffffff82169050919050565b6000610aed82610ac2565b9050919050565b610afd81610ae2565b82525050565b6000608083016000830151610b1b6000860182610a34565b5060208301518482036020860152610b338282610a89565b9150506040830151610b486040860182610a34565b506060830151610b5b6060860182610af4565b508091505092915050565b6000610b728383610b03565b905092915050565b6000602082019050919050565b6000610b9282610a08565b610b9c8185610a13565b935083602082028501610bae85610a24565b8060005b85811015610bea5784840389528151610bcb8582610b66565b9450610bd683610b7a565b925060208a01995050600181019050610bb2565b50829750879550505050505092915050565b60006020820190508181036000830152610c168184610b87565b905092915050565b600060208284031215610c3457610c33610826565b5b600082013567ffffffffffffffff811115610c5257610c5161082b565b5b610c5e8482850161097e565b91505092915050565b600060208284031215610c7d57610c7c610826565b5b6000610c8b84828501610851565b91505092915050565b7f4e487b7100000000000000000000000000000000000000000000000000000000600052603260045260246000fd5b7f4e487b7100000000000000000000000000000000000000000000000000000000600052602260045260246000fd5b60006002820490506001821680610d0a57607f821691505b602082108103610d1d57610d1c610cc3565b5b50919050565b60008190508160005260206000209050919050565b60006020601f8301049050919050565b600082821b905092915050565b600060088302610d857fffffffffffffffffffffffffffffffffffffffffffffffffffffffffffffffff82610d48565b610d8f8683610d48565b95508019841693508086168417925050509392505050565b6000819050919050565b6000610dcc610dc7610dc284610830565b610da7565b610830565b9050919050565b6000819050919050565b610de683610db1565b610dfa610df282610dd3565b848454610d55565b825550505050565b600090565b610e0f610e02565b610e1a818484610ddd565b505050565b5b81811015610e3e57610e33600082610e07565b600181019050610e20565b5050565b601f821115610e8357610e5481610d23565b610e5d84610d38565b81016020851015610e6c578190505b610e80610e7885610d38565b830182610e1f565b50505b505050565b600082821c905092915050565b6000610ea660001984600802610e88565b1980831691505092915050565b6000610ebf8383610e95565b9150826002028217905092915050565b610ed882610a43565b67ffffffffffffffff811115610ef157610ef0610881565b5b610efb8254610cf2565b610f06828285610e42565b600060209050601f831160018114610f395760008415610f27578287015190505b610f318582610eb3565b865550610f99565b601f198416610f4786610d23565b60005b82811015610f6f57848901518255600182019150602085019450602081019050610f4a565b86831015610f8c5784890151610f88601f891682610e95565b8355505b6001600288020188555050505b505050505050565b610faa81610830565b82525050565b600082825260208201905092915050565b6000610fcc82610a43565b610fd68185610fb0565b9350610fe6818560208601610a5f565b610fef81610870565b840191505092915050565b600060608201905061100f6000830186610fa1565b81810360208301526110218185610fc1565b90506110306040830184610fa1565b949350505050565b7f4e6f7465206e6f7420666f756e64000000000000000000000000000000000000600082015250565b600061106e600e83610fb0565b915061107982611038565b602082019050919050565b6000602082019050818103600083015261109d81611061565b9050919050565b7f4e487b7100000000000000000000000000000000000000000000000000000000600052601160045260246000fd5b60006110de82610830565b91507fffffffffffffffffffffffffffffffffffffffffffffffffffffffffffffffff82036111105761110f6110a4565b5b600182019050919050565b600061112682610830565b915061113183610830565b9250828203905081811115611149576111486110a4565b5b92915050565b60008154905061115e81610cf2565b9050919050565b81810361117357505061124b565b61117c8261114f565b67ffffffffffffffff81111561119557611194610881565b5b61119f8254610cf2565b6111aa828285610e42565b6000601f8311600181146111d957600084156111c7578287015490505b6111d18582610eb3565b865550611244565b601f1984166111e787610d23565b96506111f286610d23565b60005b8281101561121a578489015482556001820191506001850194506020810190506111f5565b868310156112375784890154611233601f891682610e95565b8355505b6001600288020188555050505b5050505050505b565b7f4e487b7100000000000000000000000000000000000000000000000000000000600052603160045260246000fd5b60006040820190506112916000830185610fa1565b61129e6020830184610fa1565b939250505056fea2646970667358221220a7adcc98e7fd584e0cd99577276a8e57b82900bbd6dab3a0705057351b36484564736f6c634300081c0033",
  "linkReferences": {},
  "deployedLinkReferences": {}
}